{
  "address": "0x25145149c34D398B3d744e3a4298d2f1916b11cD",
  "abi": [
    {
      "inputs": [
        {
          "internalType": "address",
          "name": "priceFeedAddress",
          "type": "address"
        }
      ],
      "stateMutability": "nonpayable",
      "type": "constructor"
    },
    {
      "inputs": [
        {
          "internalType": "address",
          "name": "",
          "type": "address"
        }
      ],
      "name": "addressToamountFunded",
      "outputs": [
        {
          "internalType": "uint256",
          "name": "",
          "type": "uint256"
        }
      ],
      "stateMutability": "view",
      "type": "function"
    },
    {
      "inputs": [],
      "name": "fund",
      "outputs": [],
      "stateMutability": "payable",
      "type": "function"
    },
    {
      "inputs": [
        {
          "internalType": "uint256",
          "name": "",
          "type": "uint256"
        }
      ],
      "name": "funders",
      "outputs": [
        {
          "internalType": "address",
          "name": "",
          "type": "address"
        }
      ],
      "stateMutability": "view",
      "type": "function"
    },
    {
      "inputs": [],
      "name": "minimumUSD",
      "outputs": [
        {
          "internalType": "uint256",
          "name": "",
          "type": "uint256"
        }
      ],
      "stateMutability": "view",
      "type": "function"
    },
    {
      "inputs": [],
      "name": "owner",
      "outputs": [
        {
          "internalType": "address",
          "name": "",
          "type": "address"
        }
      ],
      "stateMutability": "view",
      "type": "function"
    },
    {
      "inputs": [],
      "name": "priceFeed",
      "outputs": [
        {
          "internalType": "contract AggregatorV3Interface",
          "name": "",
          "type": "address"
        }
      ],
      "stateMutability": "view",
      "type": "function"
    },
    {
      "inputs": [],
      "name": "withdraw",
      "outputs": [],
      "stateMutability": "nonpayable",
      "type": "function"
    }
  ],
  "transactionHash": "0x5bbcecf158954234cfcf38a3cbc0bbc5c89b932006ac075b241e1aaad158d94f",
  "args": [
    "0x694AA1769357215DE4FAC081bf1f309aDC325306"
  ],
  "numDeployments": 2,
  "solcInputHash": "20dfd66eb83df9314c6d3ee834093019",
  "bytecode": "0x60806040526802b5e3af16b188000060005534801561001d57600080fd5b50604051610f03380380610f03833981810160405281019061003f919061012a565b33600360006101000a81548173ffffffffffffffffffffffffffffffffffffffff021916908373ffffffffffffffffffffffffffffffffffffffff16021790555080600460006101000a81548173ffffffffffffffffffffffffffffffffffffffff021916908373ffffffffffffffffffffffffffffffffffffffff16021790555050610157565b600080fd5b600073ffffffffffffffffffffffffffffffffffffffff82169050919050565b60006100f7826100cc565b9050919050565b610107816100ec565b811461011257600080fd5b50565b600081519050610124816100fe565b92915050565b6000602082840312156101405761013f6100c7565b5b600061014e84828501610115565b91505092915050565b610d9d806101666000396000f3fe6080604052600436106100705760003560e01c8063741bef1a1161004e578063741bef1a146100f45780638da5cb5b1461011f578063b60d42881461014a578063dc0d3dff1461015457610070565b80632398fa15146100755780633430a88c146100b25780633ccfd60b146100dd575b600080fd5b34801561008157600080fd5b5061009c6004803603810190610097919061078b565b610191565b6040516100a991906107d1565b60405180910390f35b3480156100be57600080fd5b506100c76101a9565b6040516100d491906107d1565b60405180910390f35b3480156100e957600080fd5b506100f26101af565b005b34801561010057600080fd5b506101096103f5565b604051610116919061084b565b60405180910390f35b34801561012b57600080fd5b5061013461041b565b6040516101419190610875565b60405180910390f35b610152610441565b005b34801561016057600080fd5b5061017b600480360381019061017691906108bc565b610575565b6040516101889190610875565b60405180910390f35b60026020528060005260406000206000915090505481565b60005481565b600360009054906101000a900473ffffffffffffffffffffffffffffffffffffffff1673ffffffffffffffffffffffffffffffffffffffff163373ffffffffffffffffffffffffffffffffffffffff161461023f576040517f08c379a000000000000000000000000000000000000000000000000000000000815260040161023690610946565b60405180910390fd5b60005b6001805490508110156102e55760006001828154811061026557610264610966565b5b9060005260206000200160009054906101000a900473ffffffffffffffffffffffffffffffffffffffff1690506000600260008373ffffffffffffffffffffffffffffffffffffffff1673ffffffffffffffffffffffffffffffffffffffff16815260200190815260200160002081905550508080600101915050610242565b50600067ffffffffffffffff81111561030157610300610995565b5b60405190808252806020026020018201604052801561032f5781602001602082028036833780820191505090505b5060019080519060200190610345929190610681565b5060003373ffffffffffffffffffffffffffffffffffffffff164760405161036c906109f5565b60006040518083038185875af1925050503d80600081146103a9576040519150601f19603f3d011682016040523d82523d6000602084013e6103ae565b606091505b50509050806103f2576040517f08c379a00000000000000000000000000000000000000000000000000000000081526004016103e990610a56565b60405180910390fd5b50565b600460009054906101000a900473ffffffffffffffffffffffffffffffffffffffff1681565b600360009054906101000a900473ffffffffffffffffffffffffffffffffffffffff1681565b600054610479600460009054906101000a900473ffffffffffffffffffffffffffffffffffffffff16346105b490919063ffffffff16565b10156104ba576040517f08c379a00000000000000000000000000000000000000000000000000000000081526004016104b190610ac2565b60405180910390fd5b6001339080600181540180825580915050600190039060005260206000200160009091909190916101000a81548173ffffffffffffffffffffffffffffffffffffffff021916908373ffffffffffffffffffffffffffffffffffffffff16021790555034600260003373ffffffffffffffffffffffffffffffffffffffff1673ffffffffffffffffffffffffffffffffffffffff168152602001908152602001600020600082825461056c9190610b11565b92505081905550565b6001818154811061058557600080fd5b906000526020600020016000915054906101000a900473ffffffffffffffffffffffffffffffffffffffff1681565b6000806105c0836105f0565b90506000670de0b6b3a764000085836105d99190610b45565b6105e39190610bb6565b9050809250505092915050565b6000808273ffffffffffffffffffffffffffffffffffffffff1663feaf968c6040518163ffffffff1660e01b815260040160a060405180830381865afa15801561063e573d6000803e3d6000fd5b505050506040513d601f19601f820116820180604052508101906106629190610c74565b5050509150506402540be400816106799190610cef565b915050919050565b8280548282559060005260206000209081019282156106fa579160200282015b828111156106f95782518260006101000a81548173ffffffffffffffffffffffffffffffffffffffff021916908373ffffffffffffffffffffffffffffffffffffffff160217905550916020019190600101906106a1565b5b509050610707919061070b565b5090565b5b8082111561072457600081600090555060010161070c565b5090565b600080fd5b600073ffffffffffffffffffffffffffffffffffffffff82169050919050565b60006107588261072d565b9050919050565b6107688161074d565b811461077357600080fd5b50565b6000813590506107858161075f565b92915050565b6000602082840312156107a1576107a0610728565b5b60006107af84828501610776565b91505092915050565b6000819050919050565b6107cb816107b8565b82525050565b60006020820190506107e660008301846107c2565b92915050565b6000819050919050565b600061081161080c6108078461072d565b6107ec565b61072d565b9050919050565b6000610823826107f6565b9050919050565b600061083582610818565b9050919050565b6108458161082a565b82525050565b6000602082019050610860600083018461083c565b92915050565b61086f8161074d565b82525050565b600060208201905061088a6000830184610866565b92915050565b610899816107b8565b81146108a457600080fd5b50565b6000813590506108b681610890565b92915050565b6000602082840312156108d2576108d1610728565b5b60006108e0848285016108a7565b91505092915050565b600082825260208201905092915050565b7f53656e646572206973206e6f74206f776e657221212100000000000000000000600082015250565b60006109306016836108e9565b915061093b826108fa565b602082019050919050565b6000602082019050818103600083015261095f81610923565b9050919050565b7f4e487b7100000000000000000000000000000000000000000000000000000000600052603260045260246000fd5b7f4e487b7100000000000000000000000000000000000000000000000000000000600052604160045260246000fd5b600081905092915050565b50565b60006109df6000836109c4565b91506109ea826109cf565b600082019050919050565b6000610a00826109d2565b9150819050919050565b7f43616c6c204661696c6564212121000000000000000000000000000000000000600082015250565b6000610a40600e836108e9565b9150610a4b82610a0a565b602082019050919050565b60006020820190508181036000830152610a6f81610a33565b9050919050565b7f4469646e742073656e6420656e6f756768206574682121210000000000000000600082015250565b6000610aac6018836108e9565b9150610ab782610a76565b602082019050919050565b60006020820190508181036000830152610adb81610a9f565b9050919050565b7f4e487b7100000000000000000000000000000000000000000000000000000000600052601160045260246000fd5b6000610b1c826107b8565b9150610b27836107b8565b9250828201905080821115610b3f57610b3e610ae2565b5b92915050565b6000610b50826107b8565b9150610b5b836107b8565b9250828202610b69816107b8565b91508282048414831517610b8057610b7f610ae2565b5b5092915050565b7f4e487b7100000000000000000000000000000000000000000000000000000000600052601260045260246000fd5b6000610bc1826107b8565b9150610bcc836107b8565b925082610bdc57610bdb610b87565b5b828204905092915050565b600069ffffffffffffffffffff82169050919050565b610c0681610be7565b8114610c1157600080fd5b50565b600081519050610c2381610bfd565b92915050565b6000819050919050565b610c3c81610c29565b8114610c4757600080fd5b50565b600081519050610c5981610c33565b92915050565b600081519050610c6e81610890565b92915050565b600080600080600060a08688031215610c9057610c8f610728565b5b6000610c9e88828901610c14565b9550506020610caf88828901610c4a565b9450506040610cc088828901610c5f565b9350506060610cd188828901610c5f565b9250506080610ce288828901610c14565b9150509295509295909350565b6000610cfa82610c29565b9150610d0583610c29565b9250828202610d1381610c29565b91507f80000000000000000000000000000000000000000000000000000000000000008414600084121615610d4b57610d4a610ae2565b5b8282058414831517610d6057610d5f610ae2565b5b509291505056fea26469706673582212208cbbb31b9595aa420bb138691b895f3546d9cd1dbcb3741b76fee0b9b37b107664736f6c63430008180033",
  "devdoc": {
    "kind": "dev",
    "methods": {},
    "version": 1
  },
  "userdoc": {
    "kind": "user",
    "methods": {},
    "version": 1
  },
  "storageLayout": {
    "storage": [
      {
        "astId": 10,
        "contract": "contracts/FundMe.sol:FundMe",
        "label": "minimumUSD",
        "offset": 0,
        "slot": "0",
        "type": "t_uint256"
      },
      {
        "astId": 13,
        "contract": "contracts/FundMe.sol:FundMe",
        "label": "funders",
        "offset": 0,
        "slot": "1",
        "type": "t_array(t_address)dyn_storage"
      },
      {
        "astId": 17,
        "contract": "contracts/FundMe.sol:FundMe",
        "label": "addressToamountFunded",
        "offset": 0,
        "slot": "2",
        "type": "t_mapping(t_address,t_uint256)"
      },
      {
        "astId": 19,
        "contract": "contracts/FundMe.sol:FundMe",
        "label": "owner",
        "offset": 0,
        "slot": "3",
        "type": "t_address"
      },
      {
        "astId": 22,
        "contract": "contracts/FundMe.sol:FundMe",
        "label": "priceFeed",
        "offset": 0,
        "slot": "4",
        "type": "t_contract(AggregatorV3Interface)306"
      }
    ],
    "types": {
      "t_address": {
        "encoding": "inplace",
        "label": "address",
        "numberOfBytes": "20"
      },
      "t_array(t_address)dyn_storage": {
        "base": "t_address",
        "encoding": "dynamic_array",
        "label": "address[]",
        "numberOfBytes": "32"
      },
      "t_contract(AggregatorV3Interface)306": {
        "encoding": "inplace",
        "label": "contract AggregatorV3Interface",
        "numberOfBytes": "20"
      },
      "t_mapping(t_address,t_uint256)": {
        "encoding": "mapping",
        "key": "t_address",
        "label": "mapping(address => uint256)",
        "numberOfBytes": "32",
        "value": "t_uint256"
      },
      "t_uint256": {
        "encoding": "inplace",
        "label": "uint256",
        "numberOfBytes": "32"
      }
    }
  }
}